{
    "address": "0xe7f1725E7734CE288F8367e1Bb143E90bb3F0512",
    "abi": [
        {
            "inputs": [
                {
                    "internalType": "address",
                    "name": "priceFeedAddress",
                    "type": "address"
                }
            ],
            "stateMutability": "nonpayable",
            "type": "constructor"
        },
        {
            "inputs": [],
            "name": "FundMe__NotOwner",
            "type": "error"
        },
        {
            "stateMutability": "payable",
            "type": "fallback"
        },
        {
            "inputs": [],
            "name": "cheaperWithdraw",
            "outputs": [],
            "stateMutability": "payable",
            "type": "function"
        },
        {
            "inputs": [],
            "name": "fund",
            "outputs": [],
            "stateMutability": "payable",
            "type": "function"
        },
        {
            "inputs": [
                {
                    "internalType": "address",
                    "name": "fundingAddress",
                    "type": "address"
                }
            ],
            "name": "getAddressToAmountFunded",
            "outputs": [
                {
                    "internalType": "uint256",
                    "name": "",
                    "type": "uint256"
                }
            ],
            "stateMutability": "view",
            "type": "function"
        },
        {
            "inputs": [
                {
                    "internalType": "uint256",
                    "name": "index",
                    "type": "uint256"
                }
            ],
            "name": "getFunder",
            "outputs": [
                {
                    "internalType": "address",
                    "name": "",
                    "type": "address"
                }
            ],
            "stateMutability": "view",
            "type": "function"
        },
        {
            "inputs": [],
            "name": "getOwner",
            "outputs": [
                {
                    "internalType": "address",
                    "name": "",
                    "type": "address"
                }
            ],
            "stateMutability": "view",
            "type": "function"
        },
        {
            "inputs": [],
            "name": "getPriceFeed",
            "outputs": [
                {
                    "internalType": "contract AggregatorV3Interface",
                    "name": "",
                    "type": "address"
                }
            ],
            "stateMutability": "view",
            "type": "function"
        },
        {
            "inputs": [],
            "name": "getVersion",
            "outputs": [
                {
                    "internalType": "uint256",
                    "name": "",
                    "type": "uint256"
                }
            ],
            "stateMutability": "view",
            "type": "function"
        },
        {
            "inputs": [
                {
                    "internalType": "address",
                    "name": "",
                    "type": "address"
                }
            ],
            "name": "s_addressToAmountFunded",
            "outputs": [
                {
                    "internalType": "uint256",
                    "name": "",
                    "type": "uint256"
                }
            ],
            "stateMutability": "view",
            "type": "function"
        },
        {
            "inputs": [],
            "name": "withdraw",
            "outputs": [],
            "stateMutability": "nonpayable",
            "type": "function"
        },
        {
            "stateMutability": "payable",
            "type": "receive"
        }
    ],
    "transactionHash": "0x222743e8fe34092deff6eed4d9a36a085c14c7ed23ce045292139da98e574526",
    "args": [
        "0x5FbDB2315678afecb367f032d93F642f64180aa3"
    ],
    "numDeployments": 1,
    "solcInputHash": "8122a9af5b949d158a6da64221ddc74f",
    "bytecode": "0x60a06040523480156200001157600080fd5b506040516200141038038062001410833981810160405281019062000037919062000120565b3373ffffffffffffffffffffffffffffffffffffffff1660808173ffffffffffffffffffffffffffffffffffffffff1660601b8152505080600260006101000a81548173ffffffffffffffffffffffffffffffffffffffff021916908373ffffffffffffffffffffffffffffffffffffffff1602179055505062000152565b600080fd5b600073ffffffffffffffffffffffffffffffffffffffff82169050919050565b6000620000e882620000bb565b9050919050565b620000fa81620000db565b81146200010657600080fd5b50565b6000815190506200011a81620000ef565b92915050565b600060208284031215620001395762000138620000b6565b5b6000620001498482850162000109565b91505092915050565b60805160601c61128a62000186600039600081816104490152818161068b015281816106db01526108d1015261128a6000f3fe60806040526004361061008a5760003560e01c8063893d20e811610059578063893d20e81461015f5780639e87a5cd1461018a578063b60d4288146101b5578063be2693f0146101bf578063d7b4750c146101c957610099565b80630343fb25146100a35780630d8e6e2c146100e05780631bf6132d1461010b5780633ccfd60b1461014857610099565b3661009957610097610206565b005b6100a1610206565b005b3480156100af57600080fd5b506100ca60048036038101906100c59190610b95565b610340565b6040516100d79190610bdb565b60405180910390f35b3480156100ec57600080fd5b506100f5610388565b6040516101029190610bdb565b60405180910390f35b34801561011757600080fd5b50610132600480360381019061012d9190610b95565b61042f565b60405161013f9190610bdb565b60405180910390f35b34801561015457600080fd5b5061015d610447565b005b34801561016b57600080fd5b50610174610687565b6040516101819190610c05565b60405180910390f35b34801561019657600080fd5b5061019f6106af565b6040516101ac9190610c7f565b60405180910390f35b6101bd610206565b005b6101c76106d9565b005b3480156101d557600080fd5b506101f060048036038101906101eb9190610cc6565b610967565b6040516101fd9190610c05565b60405180910390f35b6802b5e3af16b1880000610245600260009054906101000a900473ffffffffffffffffffffffffffffffffffffffff16346109af90919063ffffffff16565b1015610286576040517f08c379a000000000000000000000000000000000000000000000000000000000815260040161027d90610d50565b60405180910390fd5b346000803373ffffffffffffffffffffffffffffffffffffffff1673ffffffffffffffffffffffffffffffffffffffff16815260200190815260200160002060008282546102d49190610d9f565b925050819055506001339080600181540180825580915050600190039060005260206000200160009091909190916101000a81548173ffffffffffffffffffffffffffffffffffffffff021916908373ffffffffffffffffffffffffffffffffffffffff160217905550565b60008060008373ffffffffffffffffffffffffffffffffffffffff1673ffffffffffffffffffffffffffffffffffffffff168152602001908152602001600020549050919050565b6000600260009054906101000a900473ffffffffffffffffffffffffffffffffffffffff1673ffffffffffffffffffffffffffffffffffffffff166354fd4d506040518163ffffffff1660e01b815260040160206040518083038186803b1580156103f257600080fd5b505afa158015610406573d6000803e3d6000fd5b505050506040513d601f19601f8201168201806040525081019061042a9190610e0a565b905090565b60006020528060005260406000206000915090505481565b7f000000000000000000000000000000000000000000000000000000000000000073ffffffffffffffffffffffffffffffffffffffff163373ffffffffffffffffffffffffffffffffffffffff16146104cc576040517f579610db00000000000000000000000000000000000000000000000000000000815260040160405180910390fd5b60005b600180549050811015610577576000600182815481106104f2576104f1610e37565b5b9060005260206000200160009054906101000a900473ffffffffffffffffffffffffffffffffffffffff16905060008060008373ffffffffffffffffffffffffffffffffffffffff1673ffffffffffffffffffffffffffffffffffffffff1681526020019081526020016000208190555050808061056f90610e66565b9150506104cf565b50600067ffffffffffffffff81111561059357610592610eaf565b5b6040519080825280602002602001820160405280156105c15781602001602082028036833780820191505090505b50600190805190602001906105d7929190610a8b565b5060003373ffffffffffffffffffffffffffffffffffffffff16476040516105fe90610f0f565b60006040518083038185875af1925050503d806000811461063b576040519150601f19603f3d011682016040523d82523d6000602084013e610640565b606091505b5050905080610684576040517f08c379a000000000000000000000000000000000000000000000000000000000815260040161067b90610f70565b60405180910390fd5b50565b60007f0000000000000000000000000000000000000000000000000000000000000000905090565b6000600260009054906101000a900473ffffffffffffffffffffffffffffffffffffffff16905090565b7f000000000000000000000000000000000000000000000000000000000000000073ffffffffffffffffffffffffffffffffffffffff163373ffffffffffffffffffffffffffffffffffffffff161461075e576040517f579610db00000000000000000000000000000000000000000000000000000000815260040160405180910390fd5b600060018054806020026020016040519081016040528092919081815260200182805480156107e257602002820191906000526020600020905b8160009054906101000a900473ffffffffffffffffffffffffffffffffffffffff1673ffffffffffffffffffffffffffffffffffffffff1681526020019060010190808311610798575b5050505050905060005b815181101561086c57600082828151811061080a57610809610e37565b5b6020026020010151905060008060008373ffffffffffffffffffffffffffffffffffffffff1673ffffffffffffffffffffffffffffffffffffffff1681526020019081526020016000208190555050808061086490610e66565b9150506107ec565b50600067ffffffffffffffff81111561088857610887610eaf565b5b6040519080825280602002602001820160405280156108b65781602001602082028036833780820191505090505b50600190805190602001906108cc929190610a8b565b5060007f000000000000000000000000000000000000000000000000000000000000000073ffffffffffffffffffffffffffffffffffffffff164760405161091390610f0f565b60006040518083038185875af1925050503d8060008114610950576040519150601f19603f3d011682016040523d82523d6000602084013e610955565b606091505b505090508061096357600080fd5b5050565b60006001828154811061097d5761097c610e37565b5b9060005260206000200160009054906101000a900473ffffffffffffffffffffffffffffffffffffffff169050919050565b6000806109bb836109eb565b90506000670de0b6b3a764000085836109d49190610f90565b6109de9190611019565b9050809250505092915050565b6000808273ffffffffffffffffffffffffffffffffffffffff1663feaf968c6040518163ffffffff1660e01b815260040160a06040518083038186803b158015610a3457600080fd5b505afa158015610a48573d6000803e3d6000fd5b505050506040513d601f19601f82011682018060405250810190610a6c91906110c2565b5050509150506402540be40081610a83919061113d565b915050919050565b828054828255906000526020600020908101928215610b04579160200282015b82811115610b035782518260006101000a81548173ffffffffffffffffffffffffffffffffffffffff021916908373ffffffffffffffffffffffffffffffffffffffff16021790555091602001919060010190610aab565b5b509050610b119190610b15565b5090565b5b80821115610b2e576000816000905550600101610b16565b5090565b600080fd5b600073ffffffffffffffffffffffffffffffffffffffff82169050919050565b6000610b6282610b37565b9050919050565b610b7281610b57565b8114610b7d57600080fd5b50565b600081359050610b8f81610b69565b92915050565b600060208284031215610bab57610baa610b32565b5b6000610bb984828501610b80565b91505092915050565b6000819050919050565b610bd581610bc2565b82525050565b6000602082019050610bf06000830184610bcc565b92915050565b610bff81610b57565b82525050565b6000602082019050610c1a6000830184610bf6565b92915050565b6000819050919050565b6000610c45610c40610c3b84610b37565b610c20565b610b37565b9050919050565b6000610c5782610c2a565b9050919050565b6000610c6982610c4c565b9050919050565b610c7981610c5e565b82525050565b6000602082019050610c946000830184610c70565b92915050565b610ca381610bc2565b8114610cae57600080fd5b50565b600081359050610cc081610c9a565b92915050565b600060208284031215610cdc57610cdb610b32565b5b6000610cea84828501610cb1565b91505092915050565b600082825260208201905092915050565b7f596f75206e65656420746f207370656e64206d6f726520455448210000000000600082015250565b6000610d3a601b83610cf3565b9150610d4582610d04565b602082019050919050565b60006020820190508181036000830152610d6981610d2d565b9050919050565b7f4e487b7100000000000000000000000000000000000000000000000000000000600052601160045260246000fd5b6000610daa82610bc2565b9150610db583610bc2565b9250827fffffffffffffffffffffffffffffffffffffffffffffffffffffffffffffffff03821115610dea57610de9610d70565b5b828201905092915050565b600081519050610e0481610c9a565b92915050565b600060208284031215610e2057610e1f610b32565b5b6000610e2e84828501610df5565b91505092915050565b7f4e487b7100000000000000000000000000000000000000000000000000000000600052603260045260246000fd5b6000610e7182610bc2565b91507fffffffffffffffffffffffffffffffffffffffffffffffffffffffffffffffff821415610ea457610ea3610d70565b5b600182019050919050565b7f4e487b7100000000000000000000000000000000000000000000000000000000600052604160045260246000fd5b600081905092915050565b50565b6000610ef9600083610ede565b9150610f0482610ee9565b600082019050919050565b6000610f1a82610eec565b9150819050919050565b7f43616c6c206661696c6564000000000000000000000000000000000000000000600082015250565b6000610f5a600b83610cf3565b9150610f6582610f24565b602082019050919050565b60006020820190508181036000830152610f8981610f4d565b9050919050565b6000610f9b82610bc2565b9150610fa683610bc2565b9250817fffffffffffffffffffffffffffffffffffffffffffffffffffffffffffffffff0483118215151615610fdf57610fde610d70565b5b828202905092915050565b7f4e487b7100000000000000000000000000000000000000000000000000000000600052601260045260246000fd5b600061102482610bc2565b915061102f83610bc2565b92508261103f5761103e610fea565b5b828204905092915050565b600069ffffffffffffffffffff82169050919050565b6110698161104a565b811461107457600080fd5b50565b60008151905061108681611060565b92915050565b6000819050919050565b61109f8161108c565b81146110aa57600080fd5b50565b6000815190506110bc81611096565b92915050565b600080600080600060a086880312156110de576110dd610b32565b5b60006110ec88828901611077565b95505060206110fd888289016110ad565b945050604061110e88828901610df5565b935050606061111f88828901610df5565b925050608061113088828901611077565b9150509295509295909350565b60006111488261108c565b91506111538361108c565b9250827f7fffffffffffffffffffffffffffffffffffffffffffffffffffffffffffffff048211600084136000841316161561119257611191610d70565b5b817f800000000000000000000000000000000000000000000000000000000000000005831260008412600084131616156111cf576111ce610d70565b5b827f8000000000000000000000000000000000000000000000000000000000000000058212600084136000841216161561120c5761120b610d70565b5b827f7fffffffffffffffffffffffffffffffffffffffffffffffffffffffffffffff058212600084126000841216161561124957611248610d70565b5b82820290509291505056fea264697066735822122077d7721cb8aa6eb0d23cf9277244a6fb15aa4f77121c014ce6583132b8ca6f0f64736f6c63430008080033",
    "devdoc": {
        "author": "Artur Khaialiev",
        "details": "This implements price feeds as our library",
        "kind": "dev",
        "methods": {
            "fund()": {
                "details": "This implements price feeds as our library"
            }
        },
        "title": "A contract for crowd funding",
        "version": 1
    },
    "userdoc": {
        "kind": "user",
        "methods": {
            "fund()": {
                "notice": "This function funds this contract"
            }
        },
        "notice": "This contract is to demo a sample funding contract",
        "version": 1
    },
    "storageLayout": {
        "storage": [
            {
                "astId": 60,
                "contract": "contracts/FundMe.sol:FundMe",
                "label": "s_addressToAmountFunded",
                "offset": 0,
                "slot": "0",
                "type": "t_mapping(t_address,t_uint256)"
            },
            {
                "astId": 63,
                "contract": "contracts/FundMe.sol:FundMe",
                "label": "s_funders",
                "offset": 0,
                "slot": "1",
                "type": "t_array(t_address)dyn_storage"
            },
            {
                "astId": 75,
                "contract": "contracts/FundMe.sol:FundMe",
                "label": "s_priceFeed",
                "offset": 0,
                "slot": "2",
                "type": "t_contract(AggregatorV3Interface)45"
            }
        ],
        "types": {
            "t_address": {
                "encoding": "inplace",
                "label": "address",
                "numberOfBytes": "20"
            },
            "t_array(t_address)dyn_storage": {
                "base": "t_address",
                "encoding": "dynamic_array",
                "label": "address[]",
                "numberOfBytes": "32"
            },
            "t_contract(AggregatorV3Interface)45": {
                "encoding": "inplace",
                "label": "contract AggregatorV3Interface",
                "numberOfBytes": "20"
            },
            "t_mapping(t_address,t_uint256)": {
                "encoding": "mapping",
                "key": "t_address",
                "label": "mapping(address => uint256)",
                "numberOfBytes": "32",
                "value": "t_uint256"
            },
            "t_uint256": {
                "encoding": "inplace",
                "label": "uint256",
                "numberOfBytes": "32"
            }
        }
    }
}